{
  "_format": "hh-sol-artifact-1",
  "contractName": "MicroCeloEarn",
  "sourceName": "contracts/MicroCeloEarn.sol",
  "abi": [
    {
      "inputs": [
        {
          "internalType": "address",
          "name": "_cUSD",
          "type": "address"
        },
        {
          "internalType": "address",
          "name": "_cELO",
          "type": "address"
        }
      ],
      "stateMutability": "nonpayable",
      "type": "constructor"
    },
    {
      "inputs": [
        {
          "internalType": "address",
          "name": "owner",
          "type": "address"
        }
      ],
      "name": "OwnableInvalidOwner",
      "type": "error"
    },
    {
      "inputs": [
        {
          "internalType": "address",
          "name": "account",
          "type": "address"
        }
      ],
      "name": "OwnableUnauthorizedAccount",
      "type": "error"
    },
    {
      "inputs": [],
      "name": "ReentrancyGuardReentrantCall",
      "type": "error"
    },
    {
      "anonymous": false,
      "inputs": [
        {
          "indexed": true,
          "internalType": "address",
          "name": "user",
          "type": "address"
        },
        {
          "indexed": false,
          "internalType": "uint256",
          "name": "amount",
          "type": "uint256"
        },
        {
          "indexed": false,
          "internalType": "enum MicroCeloEarn.PaymentToken",
          "name": "token",
          "type": "uint8"
        }
      ],
      "name": "FundsWithdrawn",
      "type": "event"
    },
    {
      "anonymous": false,
      "inputs": [
        {
          "indexed": true,
          "internalType": "address",
          "name": "previousOwner",
          "type": "address"
        },
        {
          "indexed": true,
          "internalType": "address",
          "name": "newOwner",
          "type": "address"
        }
      ],
      "name": "OwnershipTransferred",
      "type": "event"
    },
    {
      "anonymous": false,
      "inputs": [
        {
          "indexed": true,
          "internalType": "uint256",
          "name": "taskId",
          "type": "uint256"
        },
        {
          "indexed": true,
          "internalType": "address",
          "name": "worker",
          "type": "address"
        }
      ],
      "name": "TaskAssigned",
      "type": "event"
    },
    {
      "anonymous": false,
      "inputs": [
        {
          "indexed": true,
          "internalType": "uint256",
          "name": "taskId",
          "type": "uint256"
        }
      ],
      "name": "TaskCancelled",
      "type": "event"
    },
    {
      "anonymous": false,
      "inputs": [
        {
          "indexed": true,
          "internalType": "uint256",
          "name": "taskId",
          "type": "uint256"
        },
        {
          "indexed": true,
          "internalType": "address",
          "name": "worker",
          "type": "address"
        },
        {
          "indexed": false,
          "internalType": "uint256",
          "name": "reward",
          "type": "uint256"
        }
      ],
      "name": "TaskCompleted",
      "type": "event"
    },
    {
      "anonymous": false,
      "inputs": [
        {
          "indexed": true,
          "internalType": "uint256",
          "name": "taskId",
          "type": "uint256"
        },
        {
          "indexed": true,
          "internalType": "address",
          "name": "poster",
          "type": "address"
        },
        {
          "indexed": false,
          "internalType": "uint256",
          "name": "reward",
          "type": "uint256"
        },
        {
          "indexed": false,
          "internalType": "enum MicroCeloEarn.PaymentToken",
          "name": "token",
          "type": "uint8"
        }
      ],
      "name": "TaskCreated",
      "type": "event"
    },
    {
      "anonymous": false,
      "inputs": [
        {
          "indexed": true,
          "internalType": "uint256",
          "name": "taskId",
          "type": "uint256"
        }
      ],
      "name": "TaskDisputed",
      "type": "event"
    },
    {
      "anonymous": false,
      "inputs": [
        {
          "indexed": true,
          "internalType": "uint256",
          "name": "taskId",
          "type": "uint256"
        },
        {
          "indexed": true,
          "internalType": "address",
          "name": "worker",
          "type": "address"
        }
      ],
      "name": "TaskSubmitted",
      "type": "event"
    },
    {
      "anonymous": false,
      "inputs": [
        {
          "indexed": true,
          "internalType": "address",
          "name": "worker",
          "type": "address"
        },
        {
          "indexed": false,
          "internalType": "uint256",
          "name": "rating",
          "type": "uint256"
        }
      ],
      "name": "WorkerRated",
      "type": "event"
    },
    {
      "inputs": [],
      "name": "CELO",
      "outputs": [
        {
          "internalType": "address",
          "name": "",
          "type": "address"
        }
      ],
      "stateMutability": "view",
      "type": "function"
    },
    {
      "inputs": [],
      "name": "FEE_DENOMINATOR",
      "outputs": [
        {
          "internalType": "uint256",
          "name": "",
          "type": "uint256"
        }
      ],
      "stateMutability": "view",
      "type": "function"
    },
    {
      "inputs": [
        {
          "internalType": "uint256",
          "name": "_taskId",
          "type": "uint256"
        }
      ],
      "name": "acceptTask",
      "outputs": [],
      "stateMutability": "nonpayable",
      "type": "function"
    },
    {
      "inputs": [
        {
          "internalType": "uint256",
          "name": "_taskId",
          "type": "uint256"
        },
        {
          "internalType": "uint256",
          "name": "_rating",
          "type": "uint256"
        }
      ],
      "name": "approveTask",
      "outputs": [],
      "stateMutability": "nonpayable",
      "type": "function"
    },
    {
      "inputs": [],
      "name": "cUSD",
      "outputs": [
        {
          "internalType": "address",
          "name": "",
          "type": "address"
        }
      ],
      "stateMutability": "view",
      "type": "function"
    },
    {
      "inputs": [
        {
          "internalType": "uint256",
          "name": "_taskId",
          "type": "uint256"
        }
      ],
      "name": "cancelTask",
      "outputs": [],
      "stateMutability": "nonpayable",
      "type": "function"
    },
    {
      "inputs": [
        {
          "internalType": "string",
          "name": "_title",
          "type": "string"
        },
        {
          "internalType": "string",
          "name": "_description",
          "type": "string"
        },
        {
          "internalType": "string",
          "name": "_category",
          "type": "string"
        },
        {
          "internalType": "uint256",
          "name": "_reward",
          "type": "uint256"
        },
        {
          "internalType": "enum MicroCeloEarn.PaymentToken",
          "name": "_paymentToken",
          "type": "uint8"
        },
        {
          "internalType": "uint256",
          "name": "_deadline",
          "type": "uint256"
        }
      ],
      "name": "createTask",
      "outputs": [
        {
          "internalType": "uint256",
          "name": "",
          "type": "uint256"
        }
      ],
      "stateMutability": "payable",
      "type": "function"
    },
    {
      "inputs": [
        {
          "internalType": "uint256",
          "name": "_taskId",
          "type": "uint256"
        }
      ],
      "name": "disputeTask",
      "outputs": [],
      "stateMutability": "nonpayable",
      "type": "function"
    },
    {
      "inputs": [],
      "name": "getOpenTasks",
      "outputs": [
        {
          "internalType": "uint256[]",
          "name": "",
          "type": "uint256[]"
        }
      ],
      "stateMutability": "view",
      "type": "function"
    },
    {
      "inputs": [
        {
          "internalType": "address",
          "name": "_user",
          "type": "address"
        }
      ],
      "name": "getUserAssignedTasks",
      "outputs": [
        {
          "internalType": "uint256[]",
          "name": "",
          "type": "uint256[]"
        }
      ],
      "stateMutability": "view",
      "type": "function"
    },
    {
      "inputs": [
        {
          "internalType": "address",
          "name": "_user",
          "type": "address"
        }
      ],
      "name": "getUserPostedTasks",
      "outputs": [
        {
          "internalType": "uint256[]",
          "name": "",
          "type": "uint256[]"
        }
      ],
      "stateMutability": "view",
      "type": "function"
    },
    {
      "inputs": [
        {
          "internalType": "address",
          "name": "_worker",
          "type": "address"
        }
      ],
      "name": "getWorkerProfile",
      "outputs": [
        {
          "internalType": "uint256",
          "name": "tasksCompleted",
          "type": "uint256"
        },
        {
          "internalType": "uint256",
          "name": "totalEarned",
          "type": "uint256"
        },
        {
          "internalType": "uint256",
          "name": "rating",
          "type": "uint256"
        },
        {
          "internalType": "uint256",
          "name": "ratingCount",
          "type": "uint256"
        }
      ],
      "stateMutability": "view",
      "type": "function"
    },
    {
      "inputs": [],
      "name": "owner",
      "outputs": [
        {
          "internalType": "address",
          "name": "",
          "type": "address"
        }
      ],
      "stateMutability": "view",
      "type": "function"
    },
    {
      "inputs": [],
      "name": "platformFee",
      "outputs": [
        {
          "internalType": "uint256",
          "name": "",
          "type": "uint256"
        }
      ],
      "stateMutability": "view",
      "type": "function"
    },
    {
      "inputs": [],
      "name": "renounceOwnership",
      "outputs": [],
      "stateMutability": "nonpayable",
      "type": "function"
    },
    {
      "inputs": [
        {
          "internalType": "uint256",
          "name": "_taskId",
          "type": "uint256"
        }
      ],
      "name": "submitTask",
      "outputs": [],
      "stateMutability": "nonpayable",
      "type": "function"
    },
    {
      "inputs": [],
      "name": "taskCounter",
      "outputs": [
        {
          "internalType": "uint256",
          "name": "",
          "type": "uint256"
        }
      ],
      "stateMutability": "view",
      "type": "function"
    },
    {
      "inputs": [
        {
          "internalType": "uint256",
          "name": "",
          "type": "uint256"
        }
      ],
      "name": "tasks",
      "outputs": [
        {
          "internalType": "uint256",
          "name": "id",
          "type": "uint256"
        },
        {
          "internalType": "address",
          "name": "poster",
          "type": "address"
        },
        {
          "internalType": "address",
          "name": "worker",
          "type": "address"
        },
        {
          "internalType": "string",
          "name": "title",
          "type": "string"
        },
        {
          "internalType": "string",
          "name": "description",
          "type": "string"
        },
        {
          "internalType": "string",
          "name": "category",
          "type": "string"
        },
        {
          "internalType": "uint256",
          "name": "reward",
          "type": "uint256"
        },
        {
          "internalType": "enum MicroCeloEarn.PaymentToken",
          "name": "paymentToken",
          "type": "uint8"
        },
        {
          "internalType": "enum MicroCeloEarn.TaskStatus",
          "name": "status",
          "type": "uint8"
        },
        {
          "internalType": "uint256",
          "name": "createdAt",
          "type": "uint256"
        },
        {
          "internalType": "uint256",
          "name": "deadline",
          "type": "uint256"
        },
        {
          "internalType": "bool",
          "name": "fundsEscrowed",
          "type": "bool"
        }
      ],
      "stateMutability": "view",
      "type": "function"
    },
    {
      "inputs": [
        {
          "internalType": "address",
          "name": "newOwner",
          "type": "address"
        }
      ],
      "name": "transferOwnership",
      "outputs": [],
      "stateMutability": "nonpayable",
      "type": "function"
    },
    {
      "inputs": [
        {
          "internalType": "uint256",
          "name": "_newFee",
          "type": "uint256"
        }
      ],
      "name": "updatePlatformFee",
      "outputs": [],
      "stateMutability": "nonpayable",
      "type": "function"
    },
    {
      "inputs": [
        {
          "internalType": "address",
          "name": "",
          "type": "address"
        },
        {
          "internalType": "uint256",
          "name": "",
          "type": "uint256"
        }
      ],
      "name": "userAssignedTasks",
      "outputs": [
        {
          "internalType": "uint256",
          "name": "",
          "type": "uint256"
        }
      ],
      "stateMutability": "view",
      "type": "function"
    },
    {
      "inputs": [
        {
          "internalType": "address",
          "name": "",
          "type": "address"
        },
        {
          "internalType": "uint256",
          "name": "",
          "type": "uint256"
        }
      ],
      "name": "userPostedTasks",
      "outputs": [
        {
          "internalType": "uint256",
          "name": "",
          "type": "uint256"
        }
      ],
      "stateMutability": "view",
      "type": "function"
    },
    {
      "inputs": [
        {
          "internalType": "enum MicroCeloEarn.PaymentToken",
          "name": "_token",
          "type": "uint8"
        }
      ],
      "name": "withdrawPlatformFees",
      "outputs": [],
      "stateMutability": "nonpayable",
      "type": "function"
    },
    {
      "inputs": [
        {
          "internalType": "address",
          "name": "",
          "type": "address"
        }
      ],
      "name": "workers",
      "outputs": [
        {
          "internalType": "uint256",
          "name": "tasksCompleted",
          "type": "uint256"
        },
        {
          "internalType": "uint256",
          "name": "totalEarned",
          "type": "uint256"
        },
        {
          "internalType": "uint256",
          "name": "rating",
          "type": "uint256"
        },
        {
          "internalType": "uint256",
          "name": "ratingCount",
          "type": "uint256"
        }
      ],
      "stateMutability": "view",
      "type": "function"
    },
    {
      "stateMutability": "payable",
      "type": "receive"
    }
  ],
  "bytecode": "0x608060405260fa6004553480156200001657600080fd5b506040516200244638038062002446833981016040819052620000399162000112565b600160005533806200006557604051631e4fbdf760e01b81526000600482015260240160405180910390fd5b6200007081620000a3565b50600280546001600160a01b039384166001600160a01b031991821617909155600380549290931691161790556200014a565b600180546001600160a01b038381166001600160a01b0319831681179093556040519116919082907f8be0079c531659141344cd1fd0a4f28419497f9722a3daafe3b4186f6b6457e090600090a35050565b80516001600160a01b03811681146200010d57600080fd5b919050565b600080604083850312156200012657600080fd5b6200013183620000f5565b91506200014160208401620000f5565b90509250929050565b6122ec806200015a6000396000f3fe60806040526004361061014f5760003560e01c80638d977672116100b6578063d5a82aa01161006f578063d5a82aa01461045c578063d73792a914610471578063f2fde38b14610487578063f53ac10b146104a7578063f60e673e146104ba578063fff48497146104da57600080fd5b80638d977672146103385780638da5cb5b1461037057806397d9c23e1461038e578063aa0b5988146103ae578063aadd4b2a146103ce578063ce37e7dc146103ee57600080fd5b80635867173011610108578063586717301461028057806360d45dfd14610296578063715018a6146102c357806376e79ed3146102d85780637a47a529146102f85780637eec20a81461031857600080fd5b80631bf6912d1461015b5780631fccf6721461017d57806326232a2e146101ba57806330a939fe146101de5780634048a257146101fe57806341f806b71461026057600080fd5b3661015657005b600080fd5b34801561016757600080fd5b5061017b610176366004611d02565b6104fa565b005b34801561018957600080fd5b5060025461019d906001600160a01b031681565b6040516001600160a01b0390911681526020015b60405180910390f35b3480156101c657600080fd5b506101d060045481565b6040519081526020016101b1565b3480156101ea57600080fd5b5061017b6101f9366004611d02565b610686565b34801561020a57600080fd5b50610240610219366004611d37565b60076020526000908152604090208054600182015460028301546003909301549192909184565b6040805194855260208501939093529183015260608201526080016101b1565b34801561026c57600080fd5b506101d061027b366004611d59565b610795565b34801561028c57600080fd5b506101d060055481565b3480156102a257600080fd5b506102b66102b1366004611d37565b6107c6565b6040516101b19190611d83565b3480156102cf57600080fd5b5061017b610832565b3480156102e457600080fd5b506102b66102f3366004611d37565b610846565b34801561030457600080fd5b506101d0610313366004611d59565b6108b0565b34801561032457600080fd5b5061017b610333366004611d02565b6108cc565b34801561034457600080fd5b50610358610353366004611d02565b610bfa565b6040516101b19c9b9a99989796959493929190611e37565b34801561037c57600080fd5b506001546001600160a01b031661019d565b34801561039a57600080fd5b5061017b6103a9366004611d02565b610e03565b3480156103ba57600080fd5b5061017b6103c9366004611d02565b610f5c565b3480156103da57600080fd5b5061017b6103e9366004611eed565b610faa565b3480156103fa57600080fd5b50610240610409366004611d37565b6001600160a01b0316600090815260076020908152604091829020825160808101845281548082526001830154938201849052600283015494820185905260039092015460609091018190529093919291565b34801561046857600080fd5b506102b661141b565b34801561047d57600080fd5b506101d061271081565b34801561049357600080fd5b5061017b6104a2366004611d37565b611584565b6101d06104b5366004611fc1565b6115bf565b3480156104c657600080fd5b5060035461019d906001600160a01b031681565b3480156104e657600080fd5b5061017b6104f536600461206c565b6119dd565b6000818152600660205260408120906007820154610100900460ff16600581111561052757610527611e0d565b1461056e5760405162461bcd60e51b81526020600482015260126024820152715461736b206e6f7420617661696c61626c6560701b60448201526064015b60405180910390fd5b428160090154116105b85760405162461bcd60e51b815260206004820152601460248201527315185cdac8191958591b1a5b99481c185cdcd95960621b6044820152606401610565565b6001810154336001600160a01b039091160361060f5760405162461bcd60e51b815260206004820152601660248201527543616e6e6f7420616363657074206f776e207461736b60501b6044820152606401610565565b6002810180546001600160a01b0319163390811790915560078201805461ff001916610100179055600081815260096020908152604080832080546001810182559084529183209091018590555184917f52476d55ecef5cf13caa64038f297fe6bbf865d9584a98b8722a15a6d5db128f91a35050565b600081815260066020526040902060028101546001600160a01b031633146106e65760405162461bcd60e51b81526020600482015260136024820152724e6f742061737369676e656420746f20796f7560681b6044820152606401610565565b60016007820154610100900460ff16600581111561070657610706611e0d565b146107535760405162461bcd60e51b815260206004820152601a60248201527f5461736b206e6f7420696e2061737369676e65642073746174650000000000006044820152606401610565565b60078101805461ff001916610200179055604051339083907f18b7d306cc91d617b756cefb57e5c27c82a5dce9d470e537b52f82367221264290600090a35050565b600860205281600052604060002081815481106107b157600080fd5b90600052602060002001600091509150505481565b6001600160a01b03811660009081526009602090815260409182902080548351818402810184019094528084526060939283018282801561082657602002820191906000526020600020905b815481526020019060010190808311610812575b50505050509050919050565b61083a611c59565b6108446000611c86565b565b6001600160a01b03811660009081526008602090815260409182902080548351818402810184019094528084526060939283018282801561082657602002820191906000526020600020908154815260200190600101908083116108125750505050509050919050565b600960205281600052604060002081815481106107b157600080fd5b6108d4611cd8565b600081815260066020526040902060018101546001600160a01b031633146109305760405162461bcd60e51b815260206004820152600f60248201526e2737ba103a30b9b5903837b9ba32b960891b6044820152606401610565565b60006007820154610100900460ff16600581111561095057610950611e0d565b1461099d5760405162461bcd60e51b815260206004820152601b60248201527f43616e6e6f742063616e63656c2061737369676e6564207461736b00000000006044820152606401610565565b600a81015460ff166109f15760405162461bcd60e51b815260206004820152601760248201527f46756e647320616c72656164792077697468647261776e0000000000000000006044820152606401610565565b60078101805461ff001916610400179055600454600682015460009161271091610a1b919061209d565b610a2591906120ba565b90506000818360060154610a3991906120dc565b90506000600784015460ff166001811115610a5657610a56611e0d565b03610b1757600254600184015460405163a9059cbb60e01b81526001600160a01b0391821660048201526024810184905291169063a9059cbb906044016020604051808303816000875af1158015610ab2573d6000803e3d6000fd5b505050506040513d601f19601f82011682018060405250810190610ad691906120ef565b610b125760405162461bcd60e51b815260206004820152600d60248201526c1499599d5b990819985a5b1959609a1b6044820152606401610565565b610bb3565b60018301546040516000916001600160a01b03169083908381818185875af1925050503d8060008114610b66576040519150601f19603f3d011682016040523d82523d6000602084013e610b6b565b606091505b5050905080610bb15760405162461bcd60e51b815260206004820152601260248201527110d15313c81c99599d5b990819985a5b195960721b6044820152606401610565565b505b600a8301805460ff1916905560405184907fc6eacc3aa5b2aa77b5a826b832a804ca0b71830ec74f9aa57a15edd978c31ed690600090a2505050610bf76001600055565b50565b600660205260009081526040902080546001820154600283015460038401805493946001600160a01b03938416949390921692610c3690612111565b80601f0160208091040260200160405190810160405280929190818152602001828054610c6290612111565b8015610caf5780601f10610c8457610100808354040283529160200191610caf565b820191906000526020600020905b815481529060010190602001808311610c9257829003601f168201915b505050505090806004018054610cc490612111565b80601f0160208091040260200160405190810160405280929190818152602001828054610cf090612111565b8015610d3d5780601f10610d1257610100808354040283529160200191610d3d565b820191906000526020600020905b815481529060010190602001808311610d2057829003601f168201915b505050505090806005018054610d5290612111565b80601f0160208091040260200160405190810160405280929190818152602001828054610d7e90612111565b8015610dcb5780601f10610da057610100808354040283529160200191610dcb565b820191906000526020600020905b815481529060010190602001808311610dae57829003601f168201915b505050506006830154600784015460088501546009860154600a909601549495929460ff80841695506101009093048316939192168c565b600081815260066020526040902060018101546001600160a01b0316331480610e38575060028101546001600160a01b031633145b610e7b5760405162461bcd60e51b81526020600482015260146024820152734e6f7420696e766f6c76656420696e207461736b60601b6044820152606401610565565b60026007820154610100900460ff166005811115610e9b57610e9b611e0d565b1480610ec4575060016007820154610100900460ff166005811115610ec257610ec2611e0d565b145b610f1c5760405162461bcd60e51b8152602060048201526024808201527f43616e6e6f742064697370757465207461736b20696e2063757272656e7420736044820152637461746560e01b6064820152608401610565565b60078101805461ff00191661050017905560405182907fe374130ee21046a04f5d6be14c752d412f721aecf1e8a04109b0634279cac0a690600090a25050565b610f64611c59565b6103e8811115610fa55760405162461bcd60e51b815260206004820152600c60248201526b08ccaca40e8dede40d0d2ced60a31b6044820152606401610565565b600455565b610fb2611cd8565b600082815260066020526040902060018101546001600160a01b0316331461100e5760405162461bcd60e51b815260206004820152600f60248201526e2737ba103a30b9b5903837b9ba32b960891b6044820152606401610565565b60026007820154610100900460ff16600581111561102e5761102e611e0d565b146110705760405162461bcd60e51b81526020600482015260126024820152715461736b206e6f7420696e2072657669657760701b6044820152606401610565565b60018210158015611082575060058211155b6110c35760405162461bcd60e51b8152602060048201526012602482015271526174696e67206d75737420626520312d3560701b6044820152606401610565565b600a81015460ff1661110c5760405162461bcd60e51b8152602060048201526012602482015271119d5b991cc81b9bdd08195cd8dc9bddd95960721b6044820152606401610565565b6007818101805461ff00191661030017905560028201546001600160a01b031660009081526020919091526040812080549091829061114a8361214b565b9190505550816006015481600101600082825461116791906120dc565b909155506000905061117a84601461209d565b9050816003015460000361119457600282018190556111d3565b60038201546111a49060016120dc565b81836003015484600201546111b9919061209d565b6111c391906120dc565b6111cd91906120ba565b60028301555b6003820180549060006111e58361214b565b9091555060009050600784015460ff16600181111561120657611206611e0d565b036112ce576002805490840154600685015460405163a9059cbb60e01b81526001600160a01b039283166004820152602481019190915291169063a9059cbb906044016020604051808303816000875af1158015611268573d6000803e3d6000fd5b505050506040513d601f19601f8201168201806040525081019061128c91906120ef565b6112c95760405162461bcd60e51b815260206004820152600e60248201526d14185e5b595b9d0819985a5b195960921b6044820152606401610565565b61136f565b600283015460068401546040516000926001600160a01b031691908381818185875af1925050503d8060008114611321576040519150601f19603f3d011682016040523d82523d6000602084013e611326565b606091505b505090508061136d5760405162461bcd60e51b815260206004820152601360248201527210d15313c81c185e5b595b9d0819985a5b1959606a1b6044820152606401610565565b505b600a8301805460ff19169055600283015460068401546040519081526001600160a01b039091169086907f843af93d40addceac6932508439844b897d4df9e971db326d557e3cdaa9f3ebf9060200160405180910390a360028301546040518281526001600160a01b03909116907fc8c46791c1aa2fdbcd0dc1f75a58e9c6bfb9ebecb3d918495ad55ce039b31d8b9060200160405180910390a25050506114176001600055565b5050565b6060600060015b60055481116114995760008082815260066020526040902060070154610100900460ff16600581111561145757611457611e0d565b148015611474575060008181526006602052604090206009015442105b1561148757816114838161214b565b9250505b806114918161214b565b915050611422565b5060008167ffffffffffffffff8111156114b5576114b5611f0f565b6040519080825280602002602001820160405280156114de578160200160208202803683370190505b509050600060015b600554811161157b5760008082815260066020526040902060070154610100900460ff16600581111561151b5761151b611e0d565b148015611538575060008181526006602052604090206009015442105b15611569578083838151811061155057611550612164565b6020908102919091010152816115658161214b565b9250505b806115738161214b565b9150506114e6565b50909392505050565b61158c611c59565b6001600160a01b0381166115b657604051631e4fbdf760e01b815260006004820152602401610565565b610bf781611c86565b60006115c9611cd8565b600084116116195760405162461bcd60e51b815260206004820152601d60248201527f526577617264206d7573742062652067726561746572207468616e20300000006044820152606401610565565b4282116116685760405162461bcd60e51b815260206004820152601e60248201527f446561646c696e65206d75737420626520696e207468652066757475726500006044820152606401610565565b600580549060006116788361214b565b909155505060055460045460009061271090611694908861209d565b61169e91906120ba565b905060006116ac82886120dc565b905060008660018111156116c2576116c2611e0d565b0361178a576002546040516323b872dd60e01b8152336004820152306024820152604481018390526001600160a01b03909116906323b872dd906064016020604051808303816000875af115801561171e573d6000803e3d6000fd5b505050506040513d601f19601f8201168201806040525081019061174291906120ef565b6117855760405162461bcd60e51b815260206004820152601460248201527318d554d1081d1c985b9cd9995c8819985a5b195960621b6044820152606401610565565b6117d3565b803410156117d35760405162461bcd60e51b8152602060048201526016602482015275125b9cdd59999a58da595b9d0810d15313c81cd95b9d60521b6044820152606401610565565b604051806101800160405280848152602001336001600160a01b0316815260200160006001600160a01b031681526020018b81526020018a815260200189815260200188815260200187600181111561182e5761182e611e0d565b81526020016000815242602080830191909152604080830189905260016060938401819052600088815260068452829020855181559285015190830180546001600160a01b03199081166001600160a01b03938416179091559185015160028401805490931691161790559082015160038201906118ac90826121c9565b50608082015160048201906118c190826121c9565b5060a082015160058201906118d690826121c9565b5060c0820151600682015560e082015160078201805460ff19166001838181111561190357611903611e0d565b0217905550610100828101516007830180549192909161ff0019169083600581111561193157611931611e0d565b0217905550610120820151600882810191909155610140830151600983015561016090920151600a909101805460ff191691151591909117905533600081815260209283526040808220805460018101825590835293909120909201859055905184907fd28866fcad007e04e5daaa33fedd4f1925dc2a6e88622a139d1b4887d1d93761906119c3908b908b90612289565b60405180910390a350506001600055979650505050505050565b6119e5611c59565b6119ed611cd8565b600080826001811115611a0257611a02611e0d565b03611b4f576002546040516370a0823160e01b81523060048201526001600160a01b03909116906370a0823190602401602060405180830381865afa158015611a4f573d6000803e3d6000fd5b505050506040513d601f19601f82011682018060405250810190611a73919061229d565b6002549091506001600160a01b031663a9059cbb611a996001546001600160a01b031690565b6040516001600160e01b031960e084901b1681526001600160a01b039091166004820152602481018490526044016020604051808303816000875af1158015611ae6573d6000803e3d6000fd5b505050506040513d601f19601f82011682018060405250810190611b0a91906120ef565b611b4a5760405162461bcd60e51b815260206004820152601160248201527015da5d1a191c985dd85b0819985a5b1959607a1b6044820152606401610565565b611c00565b50476000611b656001546001600160a01b031690565b6001600160a01b03168260405160006040518083038185875af1925050503d8060008114611baf576040519150601f19603f3d011682016040523d82523d6000602084013e611bb4565b606091505b5050905080611bfe5760405162461bcd60e51b815260206004820152601660248201527510d15313c81dda5d1a191c985dd85b0819985a5b195960521b6044820152606401610565565b505b6001546001600160a01b03166001600160a01b03167f51a773011f6e17528c0cbc00c115de286c7566ddce4cd97a84b7f08d82dddd838284604051611c46929190612289565b60405180910390a250610bf76001600055565b6001546001600160a01b031633146108445760405163118cdaa760e01b8152336004820152602401610565565b600180546001600160a01b038381166001600160a01b0319831681179093556040519116919082907f8be0079c531659141344cd1fd0a4f28419497f9722a3daafe3b4186f6b6457e090600090a35050565b600260005403611cfb57604051633ee5aeb560e01b815260040160405180910390fd5b6002600055565b600060208284031215611d1457600080fd5b5035919050565b80356001600160a01b0381168114611d3257600080fd5b919050565b600060208284031215611d4957600080fd5b611d5282611d1b565b9392505050565b60008060408385031215611d6c57600080fd5b611d7583611d1b565b946020939093013593505050565b6020808252825182820181905260009190848201906040850190845b81811015611dbb57835183529284019291840191600101611d9f565b50909695505050505050565b6000815180845260005b81811015611ded57602081850181015186830182015201611dd1565b506000602082860101526020601f19601f83011685010191505092915050565b634e487b7160e01b600052602160045260246000fd5b60028110611e3357611e33611e0d565b9052565b8c81526001600160a01b038c811660208301528b16604082015261018060608201819052600090611e6a8382018d611dc7565b90508281036080840152611e7e818c611dc7565b905082810360a0840152611e92818b611dc7565b9150508760c0830152611ea860e0830188611e23565b60068610611eb857611eb8611e0d565b856101008301528461012083015283610140830152611edc61016083018415159052565b9d9c50505050505050505050505050565b60008060408385031215611f0057600080fd5b50508035926020909101359150565b634e487b7160e01b600052604160045260246000fd5b600082601f830112611f3657600080fd5b813567ffffffffffffffff80821115611f5157611f51611f0f565b604051601f8301601f19908116603f01168101908282118183101715611f7957611f79611f0f565b81604052838152866020858801011115611f9257600080fd5b836020870160208301376000602085830101528094505050505092915050565b803560028110611d3257600080fd5b60008060008060008060c08789031215611fda57600080fd5b863567ffffffffffffffff80821115611ff257600080fd5b611ffe8a838b01611f25565b9750602089013591508082111561201457600080fd5b6120208a838b01611f25565b9650604089013591508082111561203657600080fd5b5061204389828a01611f25565b9450506060870135925061205960808801611fb2565b915060a087013590509295509295509295565b60006020828403121561207e57600080fd5b611d5282611fb2565b634e487b7160e01b600052601160045260246000fd5b80820281158282048414176120b4576120b4612087565b92915050565b6000826120d757634e487b7160e01b600052601260045260246000fd5b500490565b808201808211156120b4576120b4612087565b60006020828403121561210157600080fd5b81518015158114611d5257600080fd5b600181811c9082168061212557607f821691505b60208210810361214557634e487b7160e01b600052602260045260246000fd5b50919050565b60006001820161215d5761215d612087565b5060010190565b634e487b7160e01b600052603260045260246000fd5b601f8211156121c457600081815260208120601f850160051c810160208610156121a15750805b601f850160051c820191505b818110156121c0578281556001016121ad565b5050505b505050565b815167ffffffffffffffff8111156121e3576121e3611f0f565b6121f7816121f18454612111565b8461217a565b602080601f83116001811461222c57600084156122145750858301515b600019600386901b1c1916600185901b1785556121c0565b600085815260208120601f198616915b8281101561225b5788860151825594840194600190910190840161223c565b50858210156122795787850151600019600388901b60f8161c191681555b5050505050600190811b01905550565b82815260408101611d526020830184611e23565b6000602082840312156122af57600080fd5b505191905056fea26469706673582212208affc37aa64c5361db1d0157adabfe8a9f0867c4fd3eb8ced8a0aceeb72449a064736f6c63430008140033",
  "linkReferences": {},
  "deployedLinkReferences": {}
}